{
  "_format": "hh-sol-artifact-1",
  "contractName": "AyurvedicHerbTracker",
  "sourceName": "contracts/AyurvedicHerbTracker.sol",
  "abi": [
    {
      "inputs": [],
      "stateMutability": "nonpayable",
      "type": "constructor"
    },
    {
      "anonymous": false,
      "inputs": [
        {
          "indexed": false,
          "internalType": "string",
          "name": "batchId",
          "type": "string"
        },
        {
          "indexed": false,
          "internalType": "string",
          "name": "herbName",
          "type": "string"
        },
        {
          "indexed": true,
          "internalType": "address",
          "name": "farmer",
          "type": "address"
        }
      ],
      "name": "BatchCreated",
      "type": "event"
    },
    {
      "anonymous": false,
      "inputs": [
        {
          "indexed": false,
          "internalType": "string",
          "name": "batchId",
          "type": "string"
        },
        {
          "indexed": true,
          "internalType": "address",
          "name": "distributor",
          "type": "address"
        }
      ],
      "name": "DistributionStepAdded",
      "type": "event"
    },
    {
      "anonymous": false,
      "inputs": [
        {
          "indexed": false,
          "internalType": "string",
          "name": "batchId",
          "type": "string"
        },
        {
          "indexed": false,
          "internalType": "string",
          "name": "sensorType",
          "type": "string"
        }
      ],
      "name": "IotDataAdded",
      "type": "event"
    },
    {
      "anonymous": false,
      "inputs": [
        {
          "indexed": false,
          "internalType": "string",
          "name": "batchId",
          "type": "string"
        },
        {
          "indexed": true,
          "internalType": "address",
          "name": "processor",
          "type": "address"
        }
      ],
      "name": "ProcessingStepAdded",
      "type": "event"
    },
    {
      "anonymous": false,
      "inputs": [
        {
          "indexed": false,
          "internalType": "string",
          "name": "batchId",
          "type": "string"
        },
        {
          "indexed": true,
          "internalType": "address",
          "name": "tester",
          "type": "address"
        },
        {
          "indexed": false,
          "internalType": "bool",
          "name": "passed",
          "type": "bool"
        }
      ],
      "name": "QualityTestAdded",
      "type": "event"
    },
    {
      "inputs": [
        {
          "internalType": "string",
          "name": "_batchId",
          "type": "string"
        },
        {
          "internalType": "address",
          "name": "_destination",
          "type": "address"
        },
        {
          "internalType": "uint256",
          "name": "_shipDate",
          "type": "uint256"
        },
        {
          "internalType": "uint256",
          "name": "_expectedDelivery",
          "type": "uint256"
        },
        {
          "internalType": "string",
          "name": "_transportConditions",
          "type": "string"
        },
        {
          "internalType": "bool",
          "name": "_temperatureControlled",
          "type": "bool"
        },
        {
          "internalType": "string",
          "name": "_trackingId",
          "type": "string"
        }
      ],
      "name": "addDistributionStep",
      "outputs": [],
      "stateMutability": "nonpayable",
      "type": "function"
    },
    {
      "inputs": [
        {
          "internalType": "address",
          "name": "_distributor",
          "type": "address"
        }
      ],
      "name": "addDistributor",
      "outputs": [],
      "stateMutability": "nonpayable",
      "type": "function"
    },
    {
      "inputs": [
        {
          "internalType": "address",
          "name": "_farmer",
          "type": "address"
        }
      ],
      "name": "addFarmer",
      "outputs": [],
      "stateMutability": "nonpayable",
      "type": "function"
    },
    {
      "inputs": [
        {
          "internalType": "string",
          "name": "_batchId",
          "type": "string"
        },
        {
          "internalType": "string",
          "name": "_sensorType",
          "type": "string"
        },
        {
          "internalType": "string",
          "name": "_value",
          "type": "string"
        },
        {
          "internalType": "string",
          "name": "_unit",
          "type": "string"
        },
        {
          "internalType": "uint256",
          "name": "_timestamp",
          "type": "uint256"
        }
      ],
      "name": "addIotData",
      "outputs": [],
      "stateMutability": "nonpayable",
      "type": "function"
    },
    {
      "inputs": [
        {
          "internalType": "string",
          "name": "_batchId",
          "type": "string"
        },
        {
          "internalType": "uint256",
          "name": "_processDate",
          "type": "uint256"
        },
        {
          "internalType": "string",
          "name": "_processMethod",
          "type": "string"
        },
        {
          "internalType": "uint256",
          "name": "_temperature",
          "type": "uint256"
        },
        {
          "internalType": "uint256",
          "name": "_duration",
          "type": "uint256"
        },
        {
          "internalType": "string",
          "name": "_qualityGrade",
          "type": "string"
        },
        {
          "internalType": "string",
          "name": "_certificationHash",
          "type": "string"
        },
        {
          "internalType": "uint256",
          "name": "_outputQuantity",
          "type": "uint256"
        }
      ],
      "name": "addProcessingStep",
      "outputs": [],
      "stateMutability": "nonpayable",
      "type": "function"
    },
    {
      "inputs": [
        {
          "internalType": "address",
          "name": "_processor",
          "type": "address"
        }
      ],
      "name": "addProcessor",
      "outputs": [],
      "stateMutability": "nonpayable",
      "type": "function"
    },
    {
      "inputs": [
        {
          "internalType": "string",
          "name": "_batchId",
          "type": "string"
        },
        {
          "internalType": "uint256",
          "name": "_testDate",
          "type": "uint256"
        },
        {
          "internalType": "string",
          "name": "_testType",
          "type": "string"
        },
        {
          "internalType": "bool",
          "name": "_passed",
          "type": "bool"
        },
        {
          "internalType": "string",
          "name": "_testResults",
          "type": "string"
        },
        {
          "internalType": "string",
          "name": "_certificationId",
          "type": "string"
        }
      ],
      "name": "addQualityTest",
      "outputs": [],
      "stateMutability": "nonpayable",
      "type": "function"
    },
    {
      "inputs": [
        {
          "internalType": "address",
          "name": "_tester",
          "type": "address"
        }
      ],
      "name": "addTester",
      "outputs": [],
      "stateMutability": "nonpayable",
      "type": "function"
    },
    {
      "inputs": [
        {
          "internalType": "string",
          "name": "",
          "type": "string"
        }
      ],
      "name": "batches",
      "outputs": [
        {
          "internalType": "string",
          "name": "batchId",
          "type": "string"
        },
        {
          "internalType": "string",
          "name": "herbName",
          "type": "string"
        },
        {
          "internalType": "string",
          "name": "herbVariety",
          "type": "string"
        },
        {
          "internalType": "address",
          "name": "farmer",
          "type": "address"
        },
        {
          "internalType": "string",
          "name": "farmLocation",
          "type": "string"
        },
        {
          "internalType": "string",
          "name": "gpsCoordinates",
          "type": "string"
        },
        {
          "internalType": "uint256",
          "name": "plantingDate",
          "type": "uint256"
        },
        {
          "internalType": "uint256",
          "name": "harvestDate",
          "type": "uint256"
        },
        {
          "internalType": "uint256",
          "name": "quantity",
          "type": "uint256"
        },
        {
          "internalType": "string",
          "name": "soilCondition",
          "type": "string"
        },
        {
          "internalType": "bool",
          "name": "isOrganic",
          "type": "bool"
        },
        {
          "internalType": "enum AyurvedicHerbTracker.Stages",
          "name": "currentStage",
          "type": "uint8"
        },
        {
          "internalType": "bool",
          "name": "isActive",
          "type": "bool"
        }
      ],
      "stateMutability": "view",
      "type": "function"
    },
    {
      "inputs": [
        {
          "internalType": "string",
          "name": "_batchId",
          "type": "string"
        },
        {
          "internalType": "string",
          "name": "_herbName",
          "type": "string"
        },
        {
          "internalType": "string",
          "name": "_herbVariety",
          "type": "string"
        },
        {
          "internalType": "string",
          "name": "_farmLocation",
          "type": "string"
        },
        {
          "internalType": "string",
          "name": "_gpsCoordinates",
          "type": "string"
        },
        {
          "internalType": "uint256",
          "name": "_plantingDate",
          "type": "uint256"
        },
        {
          "internalType": "uint256",
          "name": "_harvestDate",
          "type": "uint256"
        },
        {
          "internalType": "uint256",
          "name": "_quantity",
          "type": "uint256"
        },
        {
          "internalType": "string",
          "name": "_soilCondition",
          "type": "string"
        },
        {
          "internalType": "bool",
          "name": "_isOrganic",
          "type": "bool"
        }
      ],
      "name": "createBatch",
      "outputs": [],
      "stateMutability": "nonpayable",
      "type": "function"
    },
    {
      "inputs": [
        {
          "internalType": "string",
          "name": "",
          "type": "string"
        },
        {
          "internalType": "uint256",
          "name": "",
          "type": "uint256"
        }
      ],
      "name": "distributionHistory",
      "outputs": [
        {
          "internalType": "address",
          "name": "distributor",
          "type": "address"
        },
        {
          "internalType": "address",
          "name": "destination",
          "type": "address"
        },
        {
          "internalType": "uint256",
          "name": "shipDate",
          "type": "uint256"
        },
        {
          "internalType": "uint256",
          "name": "expectedDelivery",
          "type": "uint256"
        },
        {
          "internalType": "string",
          "name": "transportConditions",
          "type": "string"
        },
        {
          "internalType": "bool",
          "name": "temperatureControlled",
          "type": "bool"
        },
        {
          "internalType": "string",
          "name": "trackingId",
          "type": "string"
        }
      ],
      "stateMutability": "view",
      "type": "function"
    },
    {
      "inputs": [
        {
          "internalType": "address",
          "name": "",
          "type": "address"
        }
      ],
      "name": "distributors",
      "outputs": [
        {
          "internalType": "bool",
          "name": "",
          "type": "bool"
        }
      ],
      "stateMutability": "view",
      "type": "function"
    },
    {
      "inputs": [
        {
          "internalType": "address",
          "name": "",
          "type": "address"
        }
      ],
      "name": "farmers",
      "outputs": [
        {
          "internalType": "bool",
          "name": "",
          "type": "bool"
        }
      ],
      "stateMutability": "view",
      "type": "function"
    },
    {
      "inputs": [
        {
          "internalType": "string",
          "name": "_batchId",
          "type": "string"
        }
      ],
      "name": "getBatchDetails",
      "outputs": [
        {
          "components": [
            {
              "internalType": "string",
              "name": "batchId",
              "type": "string"
            },
            {
              "internalType": "string",
              "name": "herbName",
              "type": "string"
            },
            {
              "internalType": "string",
              "name": "herbVariety",
              "type": "string"
            },
            {
              "internalType": "address",
              "name": "farmer",
              "type": "address"
            },
            {
              "internalType": "string",
              "name": "farmLocation",
              "type": "string"
            },
            {
              "internalType": "string",
              "name": "gpsCoordinates",
              "type": "string"
            },
            {
              "internalType": "uint256",
              "name": "plantingDate",
              "type": "uint256"
            },
            {
              "internalType": "uint256",
              "name": "harvestDate",
              "type": "uint256"
            },
            {
              "internalType": "uint256",
              "name": "quantity",
              "type": "uint256"
            },
            {
              "internalType": "string",
              "name": "soilCondition",
              "type": "string"
            },
            {
              "internalType": "bool",
              "name": "isOrganic",
              "type": "bool"
            },
            {
              "internalType": "enum AyurvedicHerbTracker.Stages",
              "name": "currentStage",
              "type": "uint8"
            },
            {
              "internalType": "bool",
              "name": "isActive",
              "type": "bool"
            }
          ],
          "internalType": "struct AyurvedicHerbTracker.Batch",
          "name": "",
          "type": "tuple"
        },
        {
          "components": [
            {
              "internalType": "address",
              "name": "processor",
              "type": "address"
            },
            {
              "internalType": "uint256",
              "name": "processDate",
              "type": "uint256"
            },
            {
              "internalType": "string",
              "name": "processMethod",
              "type": "string"
            },
            {
              "internalType": "uint256",
              "name": "temperature",
              "type": "uint256"
            },
            {
              "internalType": "uint256",
              "name": "duration",
              "type": "uint256"
            },
            {
              "internalType": "string",
              "name": "qualityGrade",
              "type": "string"
            },
            {
              "internalType": "string",
              "name": "certificationHash",
              "type": "string"
            },
            {
              "internalType": "uint256",
              "name": "outputQuantity",
              "type": "uint256"
            }
          ],
          "internalType": "struct AyurvedicHerbTracker.Processing[]",
          "name": "",
          "type": "tuple[]"
        },
        {
          "components": [
            {
              "internalType": "address",
              "name": "distributor",
              "type": "address"
            },
            {
              "internalType": "address",
              "name": "destination",
              "type": "address"
            },
            {
              "internalType": "uint256",
              "name": "shipDate",
              "type": "uint256"
            },
            {
              "internalType": "uint256",
              "name": "expectedDelivery",
              "type": "uint256"
            },
            {
              "internalType": "string",
              "name": "transportConditions",
              "type": "string"
            },
            {
              "internalType": "bool",
              "name": "temperatureControlled",
              "type": "bool"
            },
            {
              "internalType": "string",
              "name": "trackingId",
              "type": "string"
            }
          ],
          "internalType": "struct AyurvedicHerbTracker.Distribution[]",
          "name": "",
          "type": "tuple[]"
        },
        {
          "components": [
            {
              "internalType": "address",
              "name": "tester",
              "type": "address"
            },
            {
              "internalType": "uint256",
              "name": "testDate",
              "type": "uint256"
            },
            {
              "internalType": "string",
              "name": "testType",
              "type": "string"
            },
            {
              "internalType": "bool",
              "name": "passed",
              "type": "bool"
            },
            {
              "internalType": "string",
              "name": "testResults",
              "type": "string"
            },
            {
              "internalType": "string",
              "name": "certificationId",
              "type": "string"
            }
          ],
          "internalType": "struct AyurvedicHerbTracker.QualityTest[]",
          "name": "",
          "type": "tuple[]"
        },
        {
          "components": [
            {
              "internalType": "string",
              "name": "sensorType",
              "type": "string"
            },
            {
              "internalType": "string",
              "name": "value",
              "type": "string"
            },
            {
              "internalType": "string",
              "name": "unit",
              "type": "string"
            },
            {
              "internalType": "uint256",
              "name": "timestamp",
              "type": "uint256"
            }
          ],
          "internalType": "struct AyurvedicHerbTracker.IotData[]",
          "name": "",
          "type": "tuple[]"
        }
      ],
      "stateMutability": "view",
      "type": "function"
    },
    {
      "inputs": [
        {
          "internalType": "string",
          "name": "",
          "type": "string"
        },
        {
          "internalType": "uint256",
          "name": "",
          "type": "uint256"
        }
      ],
      "name": "iotDataHistory",
      "outputs": [
        {
          "internalType": "string",
          "name": "sensorType",
          "type": "string"
        },
        {
          "internalType": "string",
          "name": "value",
          "type": "string"
        },
        {
          "internalType": "string",
          "name": "unit",
          "type": "string"
        },
        {
          "internalType": "uint256",
          "name": "timestamp",
          "type": "uint256"
        }
      ],
      "stateMutability": "view",
      "type": "function"
    },
    {
      "inputs": [],
      "name": "owner",
      "outputs": [
        {
          "internalType": "address",
          "name": "",
          "type": "address"
        }
      ],
      "stateMutability": "view",
      "type": "function"
    },
    {
      "inputs": [
        {
          "internalType": "string",
          "name": "",
          "type": "string"
        },
        {
          "internalType": "uint256",
          "name": "",
          "type": "uint256"
        }
      ],
      "name": "processingHistory",
      "outputs": [
        {
          "internalType": "address",
          "name": "processor",
          "type": "address"
        },
        {
          "internalType": "uint256",
          "name": "processDate",
          "type": "uint256"
        },
        {
          "internalType": "string",
          "name": "processMethod",
          "type": "string"
        },
        {
          "internalType": "uint256",
          "name": "temperature",
          "type": "uint256"
        },
        {
          "internalType": "uint256",
          "name": "duration",
          "type": "uint256"
        },
        {
          "internalType": "string",
          "name": "qualityGrade",
          "type": "string"
        },
        {
          "internalType": "string",
          "name": "certificationHash",
          "type": "string"
        },
        {
          "internalType": "uint256",
          "name": "outputQuantity",
          "type": "uint256"
        }
      ],
      "stateMutability": "view",
      "type": "function"
    },
    {
      "inputs": [
        {
          "internalType": "address",
          "name": "",
          "type": "address"
        }
      ],
      "name": "processors",
      "outputs": [
        {
          "internalType": "bool",
          "name": "",
          "type": "bool"
        }
      ],
      "stateMutability": "view",
      "type": "function"
    },
    {
      "inputs": [
        {
          "internalType": "string",
          "name": "",
          "type": "string"
        },
        {
          "internalType": "uint256",
          "name": "",
          "type": "uint256"
        }
      ],
      "name": "qualityTestsHistory",
      "outputs": [
        {
          "internalType": "address",
          "name": "tester",
          "type": "address"
        },
        {
          "internalType": "uint256",
          "name": "testDate",
          "type": "uint256"
        },
        {
          "internalType": "string",
          "name": "testType",
          "type": "string"
        },
        {
          "internalType": "bool",
          "name": "passed",
          "type": "bool"
        },
        {
          "internalType": "string",
          "name": "testResults",
          "type": "string"
        },
        {
          "internalType": "string",
          "name": "certificationId",
          "type": "string"
        }
      ],
      "stateMutability": "view",
      "type": "function"
    },
    {
      "inputs": [
        {
          "internalType": "address",
          "name": "",
          "type": "address"
        }
      ],
      "name": "testers",
      "outputs": [
        {
          "internalType": "bool",
          "name": "",
          "type": "bool"
        }
      ],
      "stateMutability": "view",
      "type": "function"
    }
  ],
  "bytecode": "0x6080806040523461002857600080546001600160a01b0319163317905561341d908161002e8239f35b600080fdfe6080604052600436101561001257600080fd5b60003560e01c806309e0feae14612f685780630fcf5eb314612e96578063220530d414612ddc5780632546075314612d8d578063401b216814612d4e57806347810fe314612cff57806355d586f714612c335780637250e22414612be45780637ef1446a14612a6657806380c3f96d14612a175780638d4dc7ea1461246a5780638da5cb5b14612441578063965e064a1461240257806396f2343f14611a165780639a1e51ca146110b45780639c0e738d14610c13578063bcb2fb2d14610bd4578063c9ab87ea14610646578063cc642784146106075763efec133f146100f857600080fd5b346106025760a0366003190112610602576004356001600160401b038111610602576101289036906004016130af565b6024356001600160401b038111610602576101479036906004016130af565b6044356001600160401b038111610602576101669036906004016130af565b916064356001600160401b038111610602576101869036906004016130af565b6101cf60206040516101be60ff600a8751938581818b01966101a981838a613136565b81016001815203019020015460101c1661335c565b604051809381928751928391613136565b8101600581520301902090604051946101e786613073565b8486526020860152604085015260843560608501528054600160401b81101561044a5761021991600182018155613159565b6105ec5783518051906001600160401b03821161044a57819061023c845461318b565b601f811161059c575b50602090601f83116001146105365760009261052b575b50508160011b916000199060031b1c19161781555b60208401518051906001600160401b03821161044a578190610296600185015461318b565b601f81116104d8575b50602090601f831160011461046b57600092610460575b50508160011b916000199060031b1c19161760018201555b600281019360408101519485516001600160401b03811161044a576102f3825461318b565b601f8111610402575b506020601f8211600114610375579181600394926060947fad33eba33c4b5c1acf1c5dd995388bfe7d4488baed0f1ae40955d887c07603bf9a60009261036a575b50508160011b9160001990871b1c19161790555b0151910155610365604051928392836133a8565b0390a1005b01519050388061033d565b601f198216978360005260206000209860005b8181106103ea5750927fad33eba33c4b5c1acf1c5dd995388bfe7d4488baed0f1ae40955d887c07603bf99606095936001938360039997106103d2575b505050811b019055610351565b015160001983891b60f8161c191690553880806103c5565b838301518b556001909a019960209384019301610388565b826000526020600020601f830160051c81019160208410610440575b601f0160051c01905b81811061043457506102fc565b60008155600101610427565b909150819061041e565b634e487b7160e01b600052604160045260246000fd5b0151905038806102b6565b600185016000908152602081209350601f198516905b8181106104c057509084600195949392106104a7575b505050811b0160018201556102ce565b015160001960f88460031b161c19169055388080610497565b92936020600181928786015181550195019301610481565b909150600184016000526020600020601f840160051c810160208510610524575b90849392915b601f830160051c8201811061051557505061029f565b600081558594506001016104ff565b50806104f9565b01519050388061025c565b6000858152602081209350601f198516905b818110610584575090846001959493921061056b575b505050811b018155610271565b015160001960f88460031b161c1916905538808061055e565b92936020600181928786015181550195019301610548565b909150836000526020600020601f840160051c8101602085106105e5575b90849392915b601f830160051c820181106105d6575050610245565b600081558594506001016105c0565b50806105ba565b634e487b7160e01b600052600060045260246000fd5b600080fd5b34610602576020366003190112610602576001600160a01b036106286132c7565b166000526008602052602060ff604060002054166040519015158152f35b346106025760c0366003190112610602576001600160401b03600435818111610602576106779036906004016130af565b6044358281116106025761068f9036906004016130af565b9060643591821515830361060257608435848111610602576106b59036906004016130af565b60a435858111610602576106cd9036906004016130af565b9133600052600960205260ff6040600020541615610b7857610719602060405161070860ff600a8951938581818d01966101a981838a613136565b604051809381928951928391613136565b810160048152030190206040519361073085613058565b33855260208501936024358552604086019384528715156060870152608086015260a08501528054600160401b81101561044a57610773916001820181556132ab565b9290926105ec57835183546001600160a01b0319166001600160a01b03919091161783555160018301555180519086821161044a5781906107b7600285015461318b565b601f8111610b25575b50602090601f8311600114610ab357600092610aa8575b50508160011b916000199060031b1c19161760028201555b61080e60608301511515600383019060ff801983541691151516179055565b608082015180519086821161044a5761082a600484015461318b565b601f8111610a5d575b50602090601f83116001146109e857918060a094926005946000926109dd575b50508160011b916000199060031b1c19161760048201555b0191015193845190811161044a57610883825461318b565b601f8111610995575b506020601f821160011461090c5781907fab5fa64cfb3e56f95ae6b592760e1a6cfa1a56b6f0dd6f525143260f6d034b849596600092610901575b50508160011b916000199060031b1c19161790555b6108f16040519160408352604083019061326a565b92151560208201528033930390a2005b0151905086806108c7565b601f198216958360005260206000209660005b81811061097d5750917fab5fa64cfb3e56f95ae6b592760e1a6cfa1a56b6f0dd6f525143260f6d034b84969791846001959410610964575b505050811b0190556108dc565b015160001960f88460031b161c19169055868080610957565b8383015189556001909801976020938401930161091f565b826000526020600020601f830160051c810191602084106109d3575b601f0160051c01905b8181106109c7575061088c565b600081556001016109ba565b90915081906109b1565b015190508980610853565b906004840160005260206000209160005b601f1985168110610a4557509260a0949260019260059583601f19811610610a2c575b505050811b01600482015561086b565b015160001960f88460031b161c19169055898080610a1c565b919260206001819286850151815501940192016109f9565b600484016000526020600020601f840160051c81019160208510610a9e575b601f0160051c01905b818110610a925750610833565b60008155600101610a85565b9091508190610a7c565b0151905087806107d7565b9250600284016000526020600020906000935b601f1984168510610b0a576001945083601f19811610610af1575b505050811b0160028201556107ef565b015160001960f88460031b161c19169055878080610ae1565b81810151835560209485019460019093019290910190610ac6565b909150600284016000526020600020601f840160051c810160208510610b71575b90849392915b601f830160051c82018110610b625750506107c0565b60008155859450600101610b4c565b5080610b46565b60405162461bcd60e51b815260206004820152602e60248201527f4f6e6c79207265676973746572656420746573746572732063616e2063616c6c60448201526d103a3434b990333ab731ba34b7b760911b6064820152608490fd5b34610602576020366003190112610602576001600160a01b03610bf56132c7565b166000526009602052602060ff604060002054166040519015158152f35b346106025760e0366003190112610602576004356001600160401b03811161060257610c439036906004016130af565b6024356001600160a01b038181169291839003610602576084356001600160401b03811161060257610c799036906004016130af565b60a4358015158091036106025760c4356001600160401b03811161060257610ca59036906004016130af565b33600052600860205260ff604060002054161561105357610cda60ff600a604051602081816101a98c83815193849201613136565b6040516020818751610cef8183858c01613136565b810160038152030190209560405196610d078861303d565b33885260208801918252604088019260443584526060890194606435865260808a0196875260a08a015260c08901528054600160401b81101561044a57610d53916001820181556132dd565b9590956105ec5780885116906bffffffffffffffffffffffff60a01b91828854161787556001870192511690825416179055516002840155516003830155518051906001600160401b03821161044a57610db0600484015461318b565b601f811161100c575b50602090601f8311600114610f9757918060c09492600694600092610f8c575b50508160011b916000199060031b1c19161760048201555b610e1060a08601511515600583019060ff801983541691151516179055565b019201519182516001600160401b03811161044a57610e2f825461318b565b601f8111610f44575b506020601f8211600114610ede5781929394600092610ed3575b50508160011b916000199060031b1c19161790555b600a6040516020818451610e7e8183858901613136565b810160018152030190200161020061ff00198254161790557fe01a0b2eda90d3c7bbf0d5c0f1421cc052d282448ff173e5290ee72afa73d0246040516020815280610ece3394602083019061326a565b0390a2005b015190508480610e52565b601f198216908360005260206000209160005b818110610f2c57509583600195969710610f13575b505050811b019055610e67565b015160001960f88460031b161c19169055848080610f06565b9192602060018192868b015181550194019201610ef1565b826000526020600020601f830160051c81019160208410610f82575b601f0160051c01905b818110610f765750610e38565b60008155600101610f69565b9091508190610f60565b015190508780610dd9565b906004840160005260206000209160005b601f1985168110610ff457509260c0949260019260069583601f19811610610fdb575b505050811b016004820155610df1565b015160001960f88460031b161c19169055878080610fcb565b91926020600181928685015181550194019201610fa8565b600484016000526020600020601f840160051c81016020851061104c575b601f830160051c82018110611040575050610db9565b6000815560010161102a565b508061102a565b60405162461bcd60e51b815260206004820152603360248201527f4f6e6c792072656769737465726564206469737472696275746f72732063616e6044820152721031b0b636103a3434b990333ab731ba34b7b760691b6064820152608490fd5b34610602576020366003190112610602576004356001600160401b038111610602576110e49036906004016130af565b60006101806040516110f581613021565b60608152606060208201526060604082015282606082015260606080820152606060a08201528260c08201528260e08201528261010082015260606101208201528261014082015282610160820152015261117960ff600a60405160208186516111628183858b01613136565b600181830152810103019020015460101c1661335c565b604051602081835161118e8183858801613136565b8101600181520301902060405160208184516111ad8183858901613136565b6002818301528101030190209160405160208183516111cf8183858801613136565b81016003815203019020916112116020604051818186516111f38183858b01613136565b81016004815203019020938160405193828580945193849201613136565b60058183015281010301902092600a6040519261122d84613021565b611236816131c5565b8452611244600182016131c5565b6020850152611255600282016131c5565b604085015260038101546001600160a01b03166060850152611279600482016131c5565b608085015261128a600582016131c5565b60a0850152600681015460c0850152600781015460e085015260088101546101008501526112ba600982016131c5565b610120850152015460ff81161515610140840152600560ff8260081c161015611a0057838660ff8381899560081c1661016088015260101c161515610180860152805493611307856133d0565b94611315604051968761308e565b80865260208601809360005260206000206000915b83831061196b5750505050805491611341836133d0565b9261134f604051948561308e565b80845260208401809360005260206000206000915b8383106118dd575050505083549061137b826133d0565b91611389604051938461308e565b80835260208301809660005260206000206000915b83831061185357505050508554936113b5856133d0565b946113c3604051968761308e565b80865260208601809860005260206000206000915b8383106117e9575050505060405198899860a08a526101806114c561148d6114748d61144461142e61141889516101a060a086015261024085019061326a565b60208a0151848203609f190160c086015261326a565b6040890151838203609f190160e085015261326a565b60608801516001600160a01b03166101008301526080880151828203609f1901610120909301929092529061326a565b8d60a087015190610140609f198285030191015261326a565b60c08501516101608e015260e0850151838e01526101008501516101a08e01526101208501518d8203609f19016101c08f015261326a565b9261014081015115156101e08d01526114e98c6102006101608401519101906132f9565b015115156102208b015289820360208b015251808252602082019160208260051b82010194926000915b83831061173e575050505050878203604089015251808252602082019160208260051b82010194926000915b8383106116a3575050505050858203606087015251808252602082019160208260051b82010194926000915b838310611612575050505050838203608085015251808252602082019160208260051b82010193926000915b8383106115a45786860387f35b919395509193602080600192601f198582030186528851906060806115fa6115e86115d8865160808752608087019061326a565b878701518682038988015261326a565b6040860151858203604087015261326a565b93015191015297019301930190928695949293611597565b919396975091939460208061168f600193601f198682030187528a5190858060a01b038251168152838201518482015260a061167e611660604085015160c0604086015260c085019061326a565b6060850151151560608501526080850151848203608086015261326a565b9201519060a081840391015261326a565b98019301930190928897969594929361156b565b91939697989950919394602080611728600193601f198682030187528a5190858060a01b038251168152858060a01b03848301511684820152604082015160408201526060820151606082015260c061170b608084015160e0608085015260e084019061326a565b9260a0810151151560a084015201519060c081840391015261326a565b98019301930190928a999897969594929361153f565b9193969798999a9b50919394602080600192601f19858203018652895190848060a01b038251168152828201518382015260e0806117cb6117b96117936040870151610100604088015261010087019061326a565b606087015160608701526080870151608087015260a087015186820360a088015261326a565b60c086015185820360c087015261326a565b93015191015298019301930190928c9b9a9998979695949293611513565b600460206001929d9e969798999a9b9c9d60405161180681613073565b61180f866131c5565b815261181c8587016131c5565b8382015261182c600287016131c5565b6040820152600386015460608201528152019201920191909b9a999897969594939b6113d8565b6006602060019260409e9b9c9d9e9a9798999a5161187081613058565b848060a01b038654168152848601548382015261188f600287016131c5565b604082015260ff600387015416151560608201526118af600487016131c5565b60808201526118c0600587016131c5565b60a08201528152019201920191909a9998979a969594939661139e565b6007602060019260409d9a9b9c9d999899516118f88161303d565b855460a086901b86900390811682528686015416838201526002860154604082015260038601546060820152611930600487016131c5565b608082015260ff600587015416151560a0820152611950600687016131c5565b60c08201528152019201920191909998979699959495611364565b6008602060019260409c999a9b9c9897985161198681613005565b848060a01b03865416815284860154838201526119a5600287016131c5565b604082015260038601546060820152600486015460808201526119ca600587016131c5565b60a08201526119db600687016131c5565b60c0820152600786015460e0820152815201920192019190989796959894939461132a565b634e487b7160e01b600052602160045260246000fd5b3461060257610140366003190112610602576004356001600160401b03811161060257611a479036906004016130af565b6024356001600160401b03811161060257611a669036906004016130af565b6044356001600160401b03811161060257611a859036906004016130af565b6064356001600160401b03811161060257611aa49036906004016130af565b6084356001600160401b03811161060257611ac39036906004016130af565b610104356001600160401b03811161060257611ae39036906004016130af565b90610124359283151584036106025733600052600660205260ff60406000205416156123a65760ff600a60405160208181611b248d83815193849201613136565b81016001815203019020015460101c166123615760405194611b4586613021565b8786528660208701526040860152336060860152608085015260a084015260a43560c084015260c43560e084015260e4356101008401526101208301521515610140820152600061016082015260016101808201526040516020818551611baf8183858a01613136565b8101600181520301902081518051906001600160401b03821161044a578190611bd8845461318b565b601f8111612311575b50602090601f83116001146122ab576000926122a0575b50508160011b916000199060031b1c19161781555b60208201518051906001600160401b03821161044a578190611c32600185015461318b565b601f811161224d575b50602090601f83116001146121e0576000926121d5575b50508160011b916000199060031b1c19161760018201555b60408201518051906001600160401b03821161044a578190611c8f600285015461318b565b601f8111612182575b50602090601f83116001146121155760009261210a575b50508160011b916000199060031b1c19161760028201555b6003810160018060a01b036060840151166bffffffffffffffffffffffff60a01b82541617905560808201518051906001600160401b03821161044a578190611d13600485015461318b565b601f81116120b7575b50602090601f831160011461204a5760009261203f575b50508160011b916000199060031b1c19161760048201555b60a08201518051906001600160401b03821161044a578190611d70600585015461318b565b601f8111611fec575b50602090601f8311600114611f7f57600092611f74575b50508160011b916000199060031b1c19161760058201555b60c0820151600682015560e0820151600782015561010082015160088201556101208201518051906001600160401b03821161044a57611deb600984015461318b565b601f8111611f2d575b50602090601f8311600114611ebc57600a93929160009183611eb1575b50508160011b916000199060031b1c19161760098201555b0191611e486101408301511515849060ff801983541691151516179055565b610160820151926005841015611a00577f14a4819b534290cb8ccfb4060d5410e04c15b9493bccae224d5b9ae9e6f939d093610ece9361ff0062ff00006101808554930151151560101b169260081b169062ffff001916171790556040519182913395836133a8565b015190508780611e11565b90601f198316916009850160005260206000209260005b818110611f155750916001939185600a97969410611efc575b505050811b016009820155611e29565b015160001960f88460031b161c19169055878080611eec565b92936020600181928786015181550195019301611ed3565b600984016000526020600020601f840160051c810160208510611f6d575b601f830160051c82018110611f61575050611df4565b60008155600101611f4b565b5080611f4b565b015190508680611d90565b600585016000908152602081209350601f198516905b818110611fd45750908460019594939210611fbb575b505050811b016005820155611da8565b015160001960f88460031b161c19169055868080611fab565b92936020600181928786015181550195019301611f95565b909150600584016000526020600020601f840160051c810160208510612038575b90849392915b601f830160051c82018110612029575050611d79565b60008155859450600101612013565b508061200d565b015190508680611d33565b600485016000908152602081209350601f198516905b81811061209f5750908460019594939210612086575b505050811b016004820155611d4b565b015160001960f88460031b161c19169055868080612076565b92936020600181928786015181550195019301612060565b909150600484016000526020600020601f840160051c810160208510612103575b90849392915b601f830160051c820181106120f4575050611d1c565b600081558594506001016120de565b50806120d8565b015190508680611caf565b600285016000908152602081209350601f198516905b81811061216a5750908460019594939210612151575b505050811b016002820155611cc7565b015160001960f88460031b161c19169055868080612141565b9293602060018192878601518155019501930161212b565b909150600284016000526020600020601f840160051c8101602085106121ce575b90849392915b601f830160051c820181106121bf575050611c98565b600081558594506001016121a9565b50806121a3565b015190508680611c52565b600185016000908152602081209350601f198516905b818110612235575090846001959493921061221c575b505050811b016001820155611c6a565b015160001960f88460031b161c1916905586808061220c565b929360206001819287860151815501950193016121f6565b909150600184016000526020600020601f840160051c810160208510612299575b90849392915b601f830160051c8201811061228a575050611c3b565b60008155859450600101612274565b508061226e565b015190508680611bf8565b6000858152602081209350601f198516905b8181106122f957509084600195949392106122e0575b505050811b018155611c0d565b015160001960f88460031b161c191690558680806122d3565b929360206001819287860151815501950193016122bd565b909150836000526020600020601f840160051c81016020851061235a575b90849392915b601f830160051c8201811061234b575050611be1565b60008155859450600101612335565b508061232f565b60405162461bcd60e51b815260206004820152601760248201527f426174636820494420616c7265616479206578697374730000000000000000006044820152606490fd5b60405162461bcd60e51b815260206004820152602e60248201527f4f6e6c792072656769737465726564206661726d6572732063616e2063616c6c60448201526d103a3434b990333ab731ba34b7b760911b6064820152608490fd5b34610602576020366003190112610602576001600160a01b036124236132c7565b166000526007602052602060ff604060002054166040519015158152f35b34610602576000366003190112610602576000546040516001600160a01b039091168152602090f35b3461060257610100366003190112610602576004356001600160401b0381116106025761249b9036906004016130af565b6044356001600160401b038111610602576124ba9036906004016130af565b60a4356001600160401b038111610602576124d99036906004016130af565b9160c4356001600160401b038111610602576124f99036906004016130af565b9133600052600760205260ff60406000205416156129b85761252d60ff600a60405160208187516101a98183858c01613136565b60405160208184516125428183858901613136565b810160028152030190206040519361255985613005565b33855260208501956024358752604086019384526064356060870152608435608087015260a086015260c085015260e43560e08501528054600160401b81101561044a576125ac9160018201815561328f565b9490946105ec57835185546001600160a01b0319166001600160a01b03919091161785555160018501555180519093906001600160401b03811161044a576125f7600283015461318b565b601f8111612971575b506020601f82116001146129025781929394956000926128f7575b50508160011b916000199060031b1c19161760028201555b606083015160038201556080830151600482015560a08301519283516001600160401b03811161044a5761266a600584015461318b565b601f81116128b0575b506020601f8211600114612841578192939495600092612836575b50508160011b916000199060031b1c19161760058301555b6006820160c08201518051906001600160401b03821161044a576126ca835461318b565b601f81116127ee575b50602090601f831160011461278057918060e0949260079694600092612775575b50508160011b916000199060031b1c19161790555b0151910155600a60405160208184516127258183858901613136565b810160018152030190200161010061ff00198254161790557f512c9e81f206ef45fb8bd883d8232db20a50a5e1e743a37e73527785034e185c6040516020815280610ece3394602083019061326a565b0151905088806126f4565b90601f198316918460005260206000209260005b8181106127d657509260019285926007989660e09896106127bd575b505050811b019055612709565b015160001960f88460031b161c191690558880806127b0565b92936020600181928786015181550195019301612794565b836000526020600020601f840160051c8101916020851061282c575b601f0160051c01905b81811061282057506126d3565b60008155600101612813565b909150819061280a565b01519050858061268e565b6005840160005260206000209060005b601f1984168110612898575060019394959683601f1981161061287f575b505050811b0160058301556126a6565b015160001960f88460031b161c1916905585808061286f565b9091602060018192858b015181550193019101612851565b600584016000526020600020601f830160051c8101602084106128f0575b601f830160051c820181106128e4575050612673565b600081556001016128ce565b50806128ce565b01519050858061261b565b6002830160005260206000209060005b601f1984168110612959575060019394959683601f19811610612940575b505050811b016002820155612633565b015160001960f88460031b161c19169055858080612930565b9091602060018192858b015181550193019101612912565b600283016000526020600020601f830160051c8101602084106129b1575b601f830160051c820181106129a5575050612600565b6000815560010161298f565b508061298f565b60405162461bcd60e51b815260206004820152603160248201527f4f6e6c7920726567697374657265642070726f636573736f72732063616e206360448201527030b636103a3434b990333ab731ba34b7b760791b6064820152608490fd5b3461060257602036600319011261060257612a306132c7565b6000546001600160a01b039190612a4a9083163314613306565b166000908152600660205260409020805460ff19166001179055005b34610602576020366003190112610602576004356001600160401b03811161060257612a969036906004016130af565b6040518181809351602081930191612aad92613136565b810160018152036020019020612ac2816131c5565b612ace600183016131c5565b91612adb600282016131c5565b60038201549091906001600160a01b0316612af8600483016131c5565b90612b05600584016131c5565b9160068401549260078501549160088601549360098701612b25906131c5565b96600a0154976040519a8b9a6101a0808d528c01612b429161326a565b8b810360208d0152612b539161326a565b8a810360408c0152612b649161326a565b9060608a015288810360808a0152612b7b9161326a565b87810360a0890152612b8c9161326a565b9260c087015260e0860152610100850152838103610120850152612baf9161326a565b9060ff8116151561014084015261016083018160081c60ff1690612bd2916132f9565b60101c60ff1615156101808301520390f35b3461060257602036600319011261060257612bfd6132c7565b6000546001600160a01b039190612c179083163314613306565b166000908152600860205260409020805460ff19166001179055005b34610602576020612c5b612c4636613105565b92908160405193828580945193849201613136565b8101600381520301902090815481101561060257612c78916132dd565b5060018060a01b03612cfb8183541691600184015416926002810154612ce66003830154612ca8600485016131c5565b90612cbd600660ff60058801541696016131c5565b93604051988998895260208901526040880152606087015260e0608087015260e086019061326a565b91151560a085015283820360c085015261326a565b0390f35b3461060257602036600319011261060257612d186132c7565b6000546001600160a01b039190612d329083163314613306565b166000908152600960205260409020805460ff19166001179055005b34610602576020366003190112610602576001600160a01b03612d6f6132c7565b166000526006602052602060ff604060002054166040519015158152f35b3461060257602036600319011261060257612da66132c7565b6000546001600160a01b039190612dc09083163314613306565b166000908152600760205260409020805460ff19166001179055005b34610602576020612def612c4636613105565b8101600481520301902090815481101561060257612e0c916132ab565b5060018060a01b03815416612cfb600183015492612e88612e2f600283016131c5565b9160ff60038201541690612e73612e546005612e4d600485016131c5565b93016131c5565b946040519889988952602089015260c0604089015260c088019061326a565b9115156060870152858203608087015261326a565b9083820360a085015261326a565b34610602576020612ea9612c4636613105565b8101600281520301902090815481101561060257612ec69161328f565b50805460018201546001600160a01b0390911691612f5e612ee9600283016131c5565b91612f5060038201546004830154612f03600585016131c5565b90612f386007612f15600688016131c5565b960154976040519a8b9a610100918c5260208c01528060408c01528a019061326a565b926060890152608088015286820360a088015261326a565b9084820360c086015261326a565b9060e08301520390f35b34610602576020612f7b612c4636613105565b81016005815203019020805482101561060257612fdf91612f9b91613159565b50612fa5816131c5565b90612ffb612fb5600183016131c5565b91612fed6003612fc7600284016131c5565b9201549360405196879660808852608088019061326a565b90868203602088015261326a565b90848203604086015261326a565b9060608301520390f35b61010081019081106001600160401b0382111761044a57604052565b6101a081019081106001600160401b0382111761044a57604052565b60e081019081106001600160401b0382111761044a57604052565b60c081019081106001600160401b0382111761044a57604052565b608081019081106001600160401b0382111761044a57604052565b90601f801991011681019081106001600160401b0382111761044a57604052565b81601f82011215610602578035906001600160401b03821161044a57604051926130e3601f8401601f19166020018561308e565b8284526020838301011161060257816000926020809301838601378301015290565b604060031982011261060257600435906001600160401b0382116106025761312f916004016130af565b9060243590565b60005b8381106131495750506000910152565b8181015183820152602001613139565b80548210156131755760005260206000209060021b0190600090565b634e487b7160e01b600052603260045260246000fd5b90600182811c921680156131bb575b60208310146131a557565b634e487b7160e01b600052602260045260246000fd5b91607f169161319a565b906040519182600082546131d88161318b565b908184526020946001916001811690816000146132485750600114613209575b5050506132079250038361308e565b565b600090815285812095935091905b81831061323057505061320793508201013880806131f8565b85548884018501529485019487945091830191613217565b9250505061320794925060ff191682840152151560051b8201013880806131f8565b9060209161328381518092818552858086019101613136565b601f01601f1916010190565b80548210156131755760005260206000209060031b0190600090565b8054821015613175576000526006602060002091020190600090565b600435906001600160a01b038216820361060257565b8054821015613175576000526007602060002091020190600090565b906005821015611a005752565b1561330d57565b60405162461bcd60e51b815260206004820152602160248201527f4f6e6c79206f776e65722063616e2063616c6c20746869732066756e6374696f6044820152603760f91b6064820152608490fd5b1561336357565b60405162461bcd60e51b815260206004820152601760248201527f426174636820494420646f6573206e6f742065786973740000000000000000006044820152606490fd5b90916133bf6133cd9360408452604084019061326a565b91602081840391015261326a565b90565b6001600160401b03811161044a5760051b6020019056fea2646970667358221220a8147af6063f307f09fda8cc82ad883083d7ef9d56ce59a284e528b4c704b4c564736f6c63430008180033",
  "linkReferences": {},
  "deployedLinkReferences": {}
}